{
    "abi": [
        {
            "type": "function",
            "name": "APPROVER_ROLE",
            "inputs": [],
            "outputs": [
                {
                    "name": "",
                    "type": "bytes32",
                    "internalType": "bytes32"
                }
            ],
            "stateMutability": "view"
        },
        {
            "type": "function",
            "name": "DEFAULT_ADMIN_ROLE",
            "inputs": [],
            "outputs": [
                {
                    "name": "",
                    "type": "bytes32",
                    "internalType": "bytes32"
                }
            ],
            "stateMutability": "view"
        },
        {
            "type": "function",
            "name": "POOL_MANAGER_ROLE",
            "inputs": [],
            "outputs": [
                {
                    "name": "",
                    "type": "bytes32",
                    "internalType": "bytes32"
                }
            ],
            "stateMutability": "view"
        },
        {
            "type": "function",
            "name": "SYSTEM_ROLE",
            "inputs": [],
            "outputs": [
                {
                    "name": "",
                    "type": "bytes32",
                    "internalType": "bytes32"
                }
            ],
            "stateMutability": "view"
        },
        {
            "type": "function",
            "name": "UPGRADE_INTERFACE_VERSION",
            "inputs": [],
            "outputs": [
                {
                    "name": "",
                    "type": "string",
                    "internalType": "string"
                }
            ],
            "stateMutability": "view"
        },
        {
            "type": "function",
            "name": "activateLoan",
            "inputs": [
                {
                    "name": "_loanId",
                    "type": "bytes32",
                    "internalType": "bytes32"
                }
            ],
            "outputs": [],
            "stateMutability": "nonpayable"
        },
        {
            "type": "function",
            "name": "createLoan",
            "inputs": [
                {
                    "name": "_loanId",
                    "type": "bytes32",
                    "internalType": "bytes32"
                },
                {
                    "name": "_borrower",
                    "type": "address",
                    "internalType": "address"
                },
                {
                    "name": "_amount",
                    "type": "uint256",
                    "internalType": "uint256"
                },
                {
                    "name": "_interestRate",
                    "type": "uint256",
                    "internalType": "uint256"
                },
                {
                    "name": "_repaymentRemainingMonths",
                    "type": "uint256",
                    "internalType": "uint256"
                }
            ],
            "outputs": [],
            "stateMutability": "nonpayable"
        },
        {
            "type": "function",
            "name": "getNextRepayment",
            "inputs": [
                {
                    "name": "_loanId",
                    "type": "bytes32",
                    "internalType": "bytes32"
                }
            ],
            "outputs": [
                {
                    "name": "",
                    "type": "uint256",
                    "internalType": "uint256"
                },
                {
                    "name": "",
                    "type": "uint256",
                    "internalType": "uint256"
                }
            ],
            "stateMutability": "view"
        },
        {
            "type": "function",
            "name": "getRoleAdmin",
            "inputs": [
                {
                    "name": "role",
                    "type": "bytes32",
                    "internalType": "bytes32"
                }
            ],
            "outputs": [
                {
                    "name": "",
                    "type": "bytes32",
                    "internalType": "bytes32"
                }
            ],
            "stateMutability": "view"
        },
        {
            "type": "function",
            "name": "grantRole",
            "inputs": [
                {
                    "name": "role",
                    "type": "bytes32",
                    "internalType": "bytes32"
                },
                {
                    "name": "account",
                    "type": "address",
                    "internalType": "address"
                }
            ],
            "outputs": [],
            "stateMutability": "nonpayable"
        },
        {
            "type": "function",
            "name": "hasRole",
            "inputs": [
                {
                    "name": "role",
                    "type": "bytes32",
                    "internalType": "bytes32"
                },
                {
                    "name": "account",
                    "type": "address",
                    "internalType": "address"
                }
            ],
            "outputs": [
                {
                    "name": "",
                    "type": "bool",
                    "internalType": "bool"
                }
            ],
            "stateMutability": "view"
        },
        {
            "type": "function",
            "name": "initialize",
            "inputs": [
                {
                    "name": "_owner",
                    "type": "address",
                    "internalType": "address"
                },
                {
                    "name": "approvers",
                    "type": "address[]",
                    "internalType": "address[]"
                },
                {
                    "name": "_token",
                    "type": "address",
                    "internalType": "contract ERC20Upgradeable"
                }
            ],
            "outputs": [],
            "stateMutability": "nonpayable"
        },
        {
            "type": "function",
            "name": "loanAmounts",
            "inputs": [
                {
                    "name": "",
                    "type": "address",
                    "internalType": "address"
                }
            ],
            "outputs": [
                {
                    "name": "",
                    "type": "uint256",
                    "internalType": "uint256"
                }
            ],
            "stateMutability": "view"
        },
        {
            "type": "function",
            "name": "loanIdToActive",
            "inputs": [
                {
                    "name": "",
                    "type": "bytes32",
                    "internalType": "bytes32"
                }
            ],
            "outputs": [
                {
                    "name": "",
                    "type": "bool",
                    "internalType": "bool"
                }
            ],
            "stateMutability": "view"
        },
        {
            "type": "function",
            "name": "loanIdToAmount",
            "inputs": [
                {
                    "name": "",
                    "type": "bytes32",
                    "internalType": "bytes32"
                }
            ],
            "outputs": [
                {
                    "name": "",
                    "type": "uint256",
                    "internalType": "uint256"
                }
            ],
            "stateMutability": "view"
        },
        {
            "type": "function",
            "name": "loanIdToBorrower",
            "inputs": [
                {
                    "name": "",
                    "type": "bytes32",
                    "internalType": "bytes32"
                }
            ],
            "outputs": [
                {
                    "name": "",
                    "type": "address",
                    "internalType": "address"
                }
            ],
            "stateMutability": "view"
        },
        {
            "type": "function",
            "name": "loanIdToInterestAmount",
            "inputs": [
                {
                    "name": "",
                    "type": "bytes32",
                    "internalType": "bytes32"
                }
            ],
            "outputs": [
                {
                    "name": "",
                    "type": "uint256",
                    "internalType": "uint256"
                }
            ],
            "stateMutability": "view"
        },
        {
            "type": "function",
            "name": "loanIdToInterestRate",
            "inputs": [
                {
                    "name": "",
                    "type": "bytes32",
                    "internalType": "bytes32"
                }
            ],
            "outputs": [
                {
                    "name": "",
                    "type": "uint256",
                    "internalType": "uint256"
                }
            ],
            "stateMutability": "view"
        },
        {
            "type": "function",
            "name": "loanIdToInterestRepaymentAmount",
            "inputs": [
                {
                    "name": "",
                    "type": "bytes32",
                    "internalType": "bytes32"
                }
            ],
            "outputs": [
                {
                    "name": "",
                    "type": "uint256",
                    "internalType": "uint256"
                }
            ],
            "stateMutability": "view"
        },
        {
            "type": "function",
            "name": "loanIdToRepaymentAmount",
            "inputs": [
                {
                    "name": "",
                    "type": "bytes32",
                    "internalType": "bytes32"
                }
            ],
            "outputs": [
                {
                    "name": "",
                    "type": "uint256",
                    "internalType": "uint256"
                }
            ],
            "stateMutability": "view"
        },
        {
            "type": "function",
            "name": "loanIdToRepaymentRemainingMonths",
            "inputs": [
                {
                    "name": "",
                    "type": "bytes32",
                    "internalType": "bytes32"
                }
            ],
            "outputs": [
                {
                    "name": "",
                    "type": "uint256",
                    "internalType": "uint256"
                }
            ],
            "stateMutability": "view"
        },
        {
            "type": "function",
            "name": "makeRepayment",
            "inputs": [
                {
                    "name": "_loanId",
                    "type": "bytes32",
                    "internalType": "bytes32"
                }
            ],
            "outputs": [],
            "stateMutability": "nonpayable"
        },
        {
            "type": "function",
            "name": "owner",
            "inputs": [],
            "outputs": [
                {
                    "name": "",
                    "type": "address",
                    "internalType": "address"
                }
            ],
            "stateMutability": "view"
        },
        {
            "type": "function",
            "name": "proxiableUUID",
            "inputs": [],
            "outputs": [
                {
                    "name": "",
                    "type": "bytes32",
                    "internalType": "bytes32"
                }
            ],
            "stateMutability": "view"
        },
        {
            "type": "function",
            "name": "renounceOwnership",
            "inputs": [],
            "outputs": [],
            "stateMutability": "nonpayable"
        },
        {
            "type": "function",
            "name": "renounceRole",
            "inputs": [
                {
                    "name": "role",
                    "type": "bytes32",
                    "internalType": "bytes32"
                },
                {
                    "name": "callerConfirmation",
                    "type": "address",
                    "internalType": "address"
                }
            ],
            "outputs": [],
            "stateMutability": "nonpayable"
        },
        {
            "type": "function",
            "name": "revokeRole",
            "inputs": [
                {
                    "name": "role",
                    "type": "bytes32",
                    "internalType": "bytes32"
                },
                {
                    "name": "account",
                    "type": "address",
                    "internalType": "address"
                }
            ],
            "outputs": [],
            "stateMutability": "nonpayable"
        },
        {
            "type": "function",
            "name": "supportsInterface",
            "inputs": [
                {
                    "name": "interfaceId",
                    "type": "bytes4",
                    "internalType": "bytes4"
                }
            ],
            "outputs": [
                {
                    "name": "",
                    "type": "bool",
                    "internalType": "bool"
                }
            ],
            "stateMutability": "view"
        },
        {
            "type": "function",
            "name": "token",
            "inputs": [],
            "outputs": [
                {
                    "name": "",
                    "type": "address",
                    "internalType": "contract ERC20Upgradeable"
                }
            ],
            "stateMutability": "view"
        },
        {
            "type": "function",
            "name": "transferFunds",
            "inputs": [
                {
                    "name": "to",
                    "type": "address",
                    "internalType": "address"
                },
                {
                    "name": "amount",
                    "type": "uint256",
                    "internalType": "uint256"
                }
            ],
            "outputs": [
                {
                    "name": "success",
                    "type": "bool",
                    "internalType": "bool"
                }
            ],
            "stateMutability": "nonpayable"
        },
        {
            "type": "function",
            "name": "transferOwnership",
            "inputs": [
                {
                    "name": "newOwner",
                    "type": "address",
                    "internalType": "address"
                }
            ],
            "outputs": [],
            "stateMutability": "nonpayable"
        },
        {
            "type": "function",
            "name": "updateLoanInterestRate",
            "inputs": [
                {
                    "name": "_loanId",
                    "type": "bytes32",
                    "internalType": "bytes32"
                },
                {
                    "name": "_interestRate",
                    "type": "uint256",
                    "internalType": "uint256"
                }
            ],
            "outputs": [],
            "stateMutability": "nonpayable"
        },
        {
            "type": "function",
            "name": "updateLoanRepaymentRemainingMonths",
            "inputs": [
                {
                    "name": "_loanId",
                    "type": "bytes32",
                    "internalType": "bytes32"
                },
                {
                    "name": "_repaymentRemainingMonths",
                    "type": "uint256",
                    "internalType": "uint256"
                }
            ],
            "outputs": [],
            "stateMutability": "nonpayable"
        },
        {
            "type": "function",
            "name": "upgradeToAndCall",
            "inputs": [
                {
                    "name": "newImplementation",
                    "type": "address",
                    "internalType": "address"
                },
                {
                    "name": "data",
                    "type": "bytes",
                    "internalType": "bytes"
                }
            ],
            "outputs": [],
            "stateMutability": "payable"
        },
        {
            "type": "event",
            "name": "Initialized",
            "inputs": [
                {
                    "name": "version",
                    "type": "uint64",
                    "indexed": false,
                    "internalType": "uint64"
                }
            ],
            "anonymous": false
        },
        {
            "type": "event",
            "name": "LoanActivated",
            "inputs": [
                {
                    "name": "loanId",
                    "type": "bytes32",
                    "indexed": false,
                    "internalType": "bytes32"
                },
                {
                    "name": "borrower",
                    "type": "address",
                    "indexed": false,
                    "internalType": "address"
                },
                {
                    "name": "amount",
                    "type": "uint256",
                    "indexed": false,
                    "internalType": "uint256"
                }
            ],
            "anonymous": false
        },
        {
            "type": "event",
            "name": "LoanCreated",
            "inputs": [
                {
                    "name": "loanId",
                    "type": "bytes32",
                    "indexed": false,
                    "internalType": "bytes32"
                },
                {
                    "name": "borrower",
                    "type": "address",
                    "indexed": false,
                    "internalType": "address"
                },
                {
                    "name": "amount",
                    "type": "uint256",
                    "indexed": false,
                    "internalType": "uint256"
                },
                {
                    "name": "interestRate",
                    "type": "uint256",
                    "indexed": false,
                    "internalType": "uint256"
                },
                {
                    "name": "repaymentRemainingMonths",
                    "type": "uint256",
                    "indexed": false,
                    "internalType": "uint256"
                }
            ],
            "anonymous": false
        },
        {
            "type": "event",
            "name": "LoanInterestRateUpdated",
            "inputs": [
                {
                    "name": "loanId",
                    "type": "bytes32",
                    "indexed": false,
                    "internalType": "bytes32"
                },
                {
                    "name": "interestRate",
                    "type": "uint256",
                    "indexed": false,
                    "internalType": "uint256"
                }
            ],
            "anonymous": false
        },
        {
            "type": "event",
            "name": "LoanRepaymentMade",
            "inputs": [
                {
                    "name": "loanId",
                    "type": "bytes32",
                    "indexed": false,
                    "internalType": "bytes32"
                },
                {
                    "name": "borrower",
                    "type": "address",
                    "indexed": false,
                    "internalType": "address"
                },
                {
                    "name": "repaymentAmount",
                    "type": "uint256",
                    "indexed": false,
                    "internalType": "uint256"
                },
                {
                    "name": "interestAmount",
                    "type": "uint256",
                    "indexed": false,
                    "internalType": "uint256"
                }
            ],
            "anonymous": false
        },
        {
            "type": "event",
            "name": "LoanRepaymentRemainingMonthsUpdated",
            "inputs": [
                {
                    "name": "loanId",
                    "type": "bytes32",
                    "indexed": false,
                    "internalType": "bytes32"
                },
                {
                    "name": "repaymentRemainingMonths",
                    "type": "uint256",
                    "indexed": false,
                    "internalType": "uint256"
                }
            ],
            "anonymous": false
        },
        {
            "type": "event",
            "name": "OwnershipTransferred",
            "inputs": [
                {
                    "name": "previousOwner",
                    "type": "address",
                    "indexed": true,
                    "internalType": "address"
                },
                {
                    "name": "newOwner",
                    "type": "address",
                    "indexed": true,
                    "internalType": "address"
                }
            ],
            "anonymous": false
        },
        {
            "type": "event",
            "name": "RoleAdminChanged",
            "inputs": [
                {
                    "name": "role",
                    "type": "bytes32",
                    "indexed": true,
                    "internalType": "bytes32"
                },
                {
                    "name": "previousAdminRole",
                    "type": "bytes32",
                    "indexed": true,
                    "internalType": "bytes32"
                },
                {
                    "name": "newAdminRole",
                    "type": "bytes32",
                    "indexed": true,
                    "internalType": "bytes32"
                }
            ],
            "anonymous": false
        },
        {
            "type": "event",
            "name": "RoleGranted",
            "inputs": [
                {
                    "name": "role",
                    "type": "bytes32",
                    "indexed": true,
                    "internalType": "bytes32"
                },
                {
                    "name": "account",
                    "type": "address",
                    "indexed": true,
                    "internalType": "address"
                },
                {
                    "name": "sender",
                    "type": "address",
                    "indexed": true,
                    "internalType": "address"
                }
            ],
            "anonymous": false
        },
        {
            "type": "event",
            "name": "RoleRevoked",
            "inputs": [
                {
                    "name": "role",
                    "type": "bytes32",
                    "indexed": true,
                    "internalType": "bytes32"
                },
                {
                    "name": "account",
                    "type": "address",
                    "indexed": true,
                    "internalType": "address"
                },
                {
                    "name": "sender",
                    "type": "address",
                    "indexed": true,
                    "internalType": "address"
                }
            ],
            "anonymous": false
        },
        {
            "type": "event",
            "name": "Upgraded",
            "inputs": [
                {
                    "name": "implementation",
                    "type": "address",
                    "indexed": true,
                    "internalType": "address"
                }
            ],
            "anonymous": false
        },
        {
            "type": "error",
            "name": "AccessControlBadConfirmation",
            "inputs": []
        },
        {
            "type": "error",
            "name": "AccessControlUnauthorizedAccount",
            "inputs": [
                {
                    "name": "account",
                    "type": "address",
                    "internalType": "address"
                },
                {
                    "name": "neededRole",
                    "type": "bytes32",
                    "internalType": "bytes32"
                }
            ]
        },
        {
            "type": "error",
            "name": "AddressEmptyCode",
            "inputs": [
                {
                    "name": "target",
                    "type": "address",
                    "internalType": "address"
                }
            ]
        },
        {
            "type": "error",
            "name": "ERC1967InvalidImplementation",
            "inputs": [
                {
                    "name": "implementation",
                    "type": "address",
                    "internalType": "address"
                }
            ]
        },
        {
            "type": "error",
            "name": "ERC1967NonPayable",
            "inputs": []
        },
        {
            "type": "error",
            "name": "FailedCall",
            "inputs": []
        },
        {
            "type": "error",
            "name": "InvalidInitialization",
            "inputs": []
        },
        {
            "type": "error",
            "name": "MustHaveApproverRole",
            "inputs": [
                {
                    "name": "account",
                    "type": "address",
                    "internalType": "address"
                }
            ]
        },
        {
            "type": "error",
            "name": "NotInitializing",
            "inputs": []
        },
        {
            "type": "error",
            "name": "OwnableInvalidOwner",
            "inputs": [
                {
                    "name": "owner",
                    "type": "address",
                    "internalType": "address"
                }
            ]
        },
        {
            "type": "error",
            "name": "OwnableUnauthorizedAccount",
            "inputs": [
                {
                    "name": "account",
                    "type": "address",
                    "internalType": "address"
                }
            ]
        },
        {
            "type": "error",
            "name": "UUPSUnauthorizedCallContext",
            "inputs": []
        },
        {
            "type": "error",
            "name": "UUPSUnsupportedProxiableUUID",
            "inputs": [
                {
                    "name": "slot",
                    "type": "bytes32",
                    "internalType": "bytes32"
                }
            ]
        }
    ],
    "bytecode": {
        "object": "0x60a060405230608052348015610013575f80fd5b506080516120e261003a5f395f81816116320152818161165b015261179a01526120e25ff3fe6080604052600436106101f0575f3560e01c806375071d2a11610108578063a217fddf1161009d578063d547741f1161006d578063d547741f14610658578063da23f61d14610677578063dc5b68a6146106a2578063f2fde38b146106c1578063fc0c546a146106e0575f80fd5b8063a217fddf146105be578063ad3cb1cc146105d1578063c3efa28a1461060e578063c56b685014610639575f80fd5b80638f78e2f0116100d85780638f78e2f01461052157806391d148541461054c578063990dc9db1461056b5780639b9818ca1461058a575f80fd5b806375071d2a1461044b578063751247f01461046b578063889ed68a146104995780638da5cb5b146104e5575f80fd5b80634245962b1161018957806352d1902d1161015957806352d1902d146103c557806356d73568146103d957806359694e14146103f95780635c3d6a9214610418578063715018a614610437575f80fd5b80634245962b146103355780634f1ef286146103685780634fe9a7e31461037b57806351be16a31461039a575f80fd5b8063183c87e7116101c4578063183c87e7146102ad578063248a9ca3146102d85780632f2ff15d146102f757806336568abe14610316575f80fd5b8062396354146101f457806301ffc9a7146102325780630596313b146102615780630a2d085414610282575b5f80fd5b3480156101ff575f80fd5b5061021f61020e366004611b74565b60066020525f908152604090205481565b6040519081526020015b60405180910390f35b34801561023d575f80fd5b5061025161024c366004611b8b565b6106fe565b6040519015158152602001610229565b34801561026c575f80fd5b5061028061027b366004611bb2565b610734565b005b34801561028d575f80fd5b5061021f61029c366004611b74565b60056020525f908152604090205481565b3480156102b8575f80fd5b5061021f6102c7366004611b74565b60036020525f908152604090205481565b3480156102e3575f80fd5b5061021f6102f2366004611b74565b6108a8565b348015610302575f80fd5b50610280610311366004611be6565b6108c8565b348015610321575f80fd5b50610280610330366004611be6565b6108ea565b348015610340575f80fd5b5061021f7f408a36151f841709116a4e8aca4e0202874f7f54687dcb863b1ea4672dc9d8cf81565b610280610376366004611c59565b610922565b348015610386575f80fd5b50610280610395366004611cfb565b610941565b3480156103a5575f80fd5b5061021f6103b4366004611b74565b60076020525f908152604090205481565b3480156103d0575f80fd5b5061021f610ade565b3480156103e4575f80fd5b5061021f5f8051602061208d83398151915281565b348015610404575f80fd5b50610280610413366004611b74565b610af9565b348015610423575f80fd5b50610280610432366004611b74565b610cd7565b348015610442575f80fd5b50610280610fff565b348015610456575f80fd5b5061021f5f8051602061202d83398151915281565b348015610476575f80fd5b50610251610485366004611b74565b60016020525f908152604090205460ff1681565b3480156104a4575f80fd5b506104cd6104b3366004611b74565b60026020525f90815260409020546001600160a01b031681565b6040516001600160a01b039091168152602001610229565b3480156104f0575f80fd5b507f9016d09d72d40fdae2fd8ceac6b6234c7706214fd39c1cd1e609a0528c199300546001600160a01b03166104cd565b34801561052c575f80fd5b5061021f61053b366004611d3f565b60096020525f908152604090205481565b348015610557575f80fd5b50610251610566366004611be6565b611012565b348015610576575f80fd5b50610251610585366004611d5a565b611048565b348015610595575f80fd5b506105a96105a4366004611b74565b6110cb565b60408051928352602083019190915201610229565b3480156105c9575f80fd5b5061021f5f81565b3480156105dc575f80fd5b50610601604051806040016040528060058152602001640352e302e360dc1b81525081565b6040516102299190611da6565b348015610619575f80fd5b5061021f610628366004611b74565b60086020525f908152604090205481565b348015610644575f80fd5b50610280610653366004611bb2565b611154565b348015610663575f80fd5b50610280610672366004611be6565b6112b4565b348015610682575f80fd5b5061021f610691366004611b74565b60046020525f908152604090205481565b3480156106ad575f80fd5b506102806106bc366004611de8565b6112d0565b3480156106cc575f80fd5b506102806106db366004611d3f565b6114c6565b3480156106eb575f80fd5b505f546104cd906001600160a01b031681565b5f6001600160e01b03198216637965db0b60e01b148061072e57506301ffc9a760e01b6001600160e01b03198316145b92915050565b61074b5f8051602061202d83398151915233611012565b8061076857506107685f8051602061208d83398151915233611012565b61078d5760405162461bcd60e51b815260040161078490611eb9565b60405180910390fd5b5f8281526002602052604090205482906001600160a01b03166107c25760405162461bcd60e51b815260040161078490611efe565b5f83815260016020526040902054839060ff166107f15760405162461bcd60e51b815260040161078490611f2b565b5f8481526005602090815260408083208690556003825280832054600690925282205490916108208284611f6b565b5f888152600860205260409020549091506104b09061083f8884611f7e565b6108499190611f7e565b6108539190611f95565b5f888152600460209081526040918290209290925580518981529182018890527f0b24a7dcfd1946a0184ebba0acf8fea0c9a8e6d11e3ff854102f2c078ced3cbe91015b60405180910390a150505050505050565b5f9081525f8051602061206d833981519152602052604090206001015490565b6108d1826108a8565b6108da81611503565b6108e4838361150d565b50505050565b6001600160a01b03811633146109135760405163334bd91960e11b815260040160405180910390fd5b61091d82826115ae565b505050565b61092a611627565b610933826116cb565b61093d82826116d3565b5050565b6109585f8051602061202d83398151915233611012565b8061097557506109755f8051602061208d83398151915233611012565b6109915760405162461bcd60e51b815260040161078490611eb9565b5f8581526002602052604090205485906001600160a01b0316156109ed5760405162461bcd60e51b81526020600482015260136024820152724c6f616e20616c72656164792065786973747360681b6044820152606401610784565b5f86815260026020908152604080832080546001600160a01b0319166001600160a01b038a16179055600390915290208490556104b082610a2e8587611f7e565b610a389190611f7e565b610a429190611f95565b5f87815260046020908152604080832093909355600581528282208690556006815282822082905560078152828220829055600881529082902084905581518881526001600160a01b0388169181019190915290810185905260608101849052608081018390527fe960062a0ba868077d9ca9d5a3ba16f32ee978fef2a58df3e1385a6f7f3d6a149060a00160405180910390a1505050505050565b5f610ae761178f565b505f8051602061204d83398151915290565b610b105f8051602061202d83398151915233611012565b80610b2d5750610b2d5f8051602061208d83398151915233611012565b610b495760405162461bcd60e51b815260040161078490611eb9565b5f8181526002602052604090205481906001600160a01b0316610b7e5760405162461bcd60e51b815260040161078490611efe565b5f82815260016020526040902054829060ff1615610bd55760405162461bcd60e51b8152602060048201526014602482015273131bd85b88185b1c9958591e4818dc99585d195960621b6044820152606401610784565b5f838152600160208181526040808420805460ff19169093179092556003815281832054835460029092529282902054915163a9059cbb60e01b81526001600160a01b0392831660048201526024810184905291169063a9059cbb906044016020604051808303815f875af1158015610c50573d5f803e3d5ffd5b505050506040513d601f19601f82011682018060405250810190610c749190611fb4565b505f848152600260209081526040918290205482518781526001600160a01b03909116918101919091529081018290527fee2def75604a7ee0f616223c636b6674a0cf1e2b1d6a12d18e06144a2aa98ba49060600160405180910390a150505050565b5f8181526002602052604090205481906001600160a01b0316610d0c5760405162461bcd60e51b815260040161078490611efe565b5f82815260016020526040902054829060ff16610d3b5760405162461bcd60e51b815260040161078490611f2b565b5f838152600260205260409020546001600160a01b03163314610daa5760405162461bcd60e51b815260206004820152602160248201527f4f6e6c7920626f72726f7765722063616e206d616b652072657061796d656e746044820152607360f81b6064820152608401610784565b5f80610db5856110cb565b90925090505f610dc58284611fd3565b5f8781526006602090815260408083205460039092528220549293509091610ded9190611f6b565b90505f8111610e3e5760405162461bcd60e51b815260206004820152601c60248201527f4c6f616e20697320616c72656164792066756c6c7920726570616964000000006044820152606401610784565b5f8211610e8d5760405162461bcd60e51b815260206004820152601d60248201527f416d6f756e74206d7573742062652067726561746572207468616e20300000006044820152606401610784565b5f546040516323b872dd60e01b8152336004820152306024820152604481018490526001600160a01b03909116906323b872dd906064016020604051808303815f875af1158015610ee0573d5f803e3d5ffd5b505050506040513d601f19601f82011682018060405250810190610f049190611fb4565b610f425760405162461bcd60e51b815260206004820152600f60248201526e151c985b9cd9995c8819985a5b1959608a1b6044820152606401610784565b5f8781526006602052604081208054869290610f5f908490611fd3565b90915550505f8781526007602052604081208054859290610f81908490611fd3565b90915550505f8781526003602090815260408083205460069092529091205410610fbb575f878152600160205260409020805460ff191690555b60408051888152336020820152908101859052606081018490527fc39b9957b5245fa5f361e29d4e04b204db93dc7f3d78bbadeb9e7809d2d77eca90608001610897565b6110076117d8565b6110105f611833565b565b5f9182525f8051602061206d833981519152602090815260408084206001600160a01b0393909316845291905290205460ff1690565b5f6110516117d8565b5f5460405163a9059cbb60e01b81526001600160a01b038581166004830152602482018590529091169063a9059cbb906044016020604051808303815f875af11580156110a0573d5f803e3d5ffd5b505050506040513d601f19601f820116820180604052508101906110c49190611fb4565b9392505050565b5f81815260036020908152604080832054600483528184205460069093529083205483929083816110fc8486611fd3565b6111069190611f6b565b5f888152600560209081526040808320546008909252909120549192509082611131826104b0611f7e565b61113b8486611f7e565b6111459190611f95565b97509750505050505050915091565b61116b5f8051602061202d83398151915233611012565b8061118857506111885f8051602061208d83398151915233611012565b6111a45760405162461bcd60e51b815260040161078490611eb9565b5f8281526002602052604090205482906001600160a01b03166111d95760405162461bcd60e51b815260040161078490611efe565b5f83815260016020526040902054839060ff166112085760405162461bcd60e51b815260040161078490611f2b565b5f8481526008602090815260408083208690556003825280832054600690925282205490916112378284611f6b565b5f888152600560205260409020549091506104b09087906112589084611f7e565b6112629190611f7e565b61126c9190611f95565b5f888152600460209081526040918290209290925580518981529182018890527fd500c7a7d45dd0769d8a427ddb2dbce05b6a44e1f9b1174dd966f6678c0d1bfd9101610897565b6112bd826108a8565b6112c681611503565b6108e483836115ae565b7ff0c57e16840df040f15088dc2f81fe391c3923bec73e23a9662efc9c229c6a008054600160401b810460ff16159067ffffffffffffffff165f811580156113155750825b90505f8267ffffffffffffffff1660011480156113315750303b155b90508115801561133f575080155b1561135d5760405163f92ee8a960e01b815260040160405180910390fd5b845467ffffffffffffffff19166001178555831561138757845460ff60401b1916600160401b1785555b611390886118a3565b6113986118b4565b6113a06118b4565b6113aa5f8961150d565b506113c25f8051602061208d8339815191525f6118bc565b6113d95f8051602061208d8339815191528961150d565b506114047f408a36151f841709116a4e8aca4e0202874f7f54687dcb863b1ea4672dc9d8cf5f6118bc565b5f5b875181101561145b576114527f408a36151f841709116a4e8aca4e0202874f7f54687dcb863b1ea4672dc9d8cf89838151811061144557611445611fe6565b602002602001015161150d565b50600101611406565b505f80546001600160a01b0319166001600160a01b03881617905583156114bc57845460ff60401b19168555604051600181527fc7f505b2f371ae2175ee4913f4499e1f2633a7b5936321eed1cdaeb6115181d29060200160405180910390a15b5050505050505050565b6114ce6117d8565b6001600160a01b0381166114f757604051631e4fbdf760e01b81525f6004820152602401610784565b61150081611833565b50565b611500813361191c565b5f5f8051602061206d8339815191526115268484611012565b6115a5575f848152602082815260408083206001600160a01b03871684529091529020805460ff1916600117905561155b3390565b6001600160a01b0316836001600160a01b0316857f2f8788117e7eff1d82e926ec794901d17c78024a50270940304540a733656f0d60405160405180910390a4600191505061072e565b5f91505061072e565b5f5f8051602061206d8339815191526115c78484611012565b156115a5575f848152602082815260408083206001600160a01b0387168085529252808320805460ff1916905551339287917ff6391f5c32d9c69d2a47ea670b442974b53935d1edc7fd64eb21e047a839171b9190a4600191505061072e565b306001600160a01b037f00000000000000000000000000000000000000000000000000000000000000001614806116ad57507f00000000000000000000000000000000000000000000000000000000000000006001600160a01b03166116a15f8051602061204d833981519152546001600160a01b031690565b6001600160a01b031614155b156110105760405163703e46dd60e11b815260040160405180910390fd5b6115006117d8565b816001600160a01b03166352d1902d6040518163ffffffff1660e01b8152600401602060405180830381865afa92505050801561172d575060408051601f3d908101601f1916820190925261172a91810190611ffa565b60015b61175557604051634c9c8ce360e01b81526001600160a01b0383166004820152602401610784565b5f8051602061204d833981519152811461178557604051632a87526960e21b815260048101829052602401610784565b61091d8383611955565b306001600160a01b037f000000000000000000000000000000000000000000000000000000000000000016146110105760405163703e46dd60e11b815260040160405180910390fd5b3361180a7f9016d09d72d40fdae2fd8ceac6b6234c7706214fd39c1cd1e609a0528c199300546001600160a01b031690565b6001600160a01b0316146110105760405163118cdaa760e01b8152336004820152602401610784565b7f9016d09d72d40fdae2fd8ceac6b6234c7706214fd39c1cd1e609a0528c19930080546001600160a01b031981166001600160a01b03848116918217845560405192169182907f8be0079c531659141344cd1fd0a4f28419497f9722a3daafe3b4186f6b6457e0905f90a3505050565b6118ab6119aa565b611500816119f3565b6110106119aa565b5f8051602061206d8339815191525f6118d4846108a8565b5f85815260208490526040808220600101869055519192508491839187917fbd79b86ffe0ab8e8776151514217cd7cacd52c909f66475c3af44e129f0b00ff9190a450505050565b6119268282611012565b61093d5760405163e2517d3f60e01b81526001600160a01b038216600482015260248101839052604401610784565b61195e826119fb565b6040516001600160a01b038316907fbc7cd75a20ee27fd9adebab32041f755214dbc6bffa90cc0225b39da2e5c2d3b905f90a28051156119a25761091d8282611a5e565b61093d611ad0565b7ff0c57e16840df040f15088dc2f81fe391c3923bec73e23a9662efc9c229c6a0054600160401b900460ff1661101057604051631afcd79f60e31b815260040160405180910390fd5b6114ce6119aa565b806001600160a01b03163b5f03611a3057604051634c9c8ce360e01b81526001600160a01b0382166004820152602401610784565b5f8051602061204d83398151915280546001600160a01b0319166001600160a01b0392909216919091179055565b60605f80846001600160a01b031684604051611a7a9190612011565b5f60405180830381855af49150503d805f8114611ab2576040519150601f19603f3d011682016040523d82523d5f602084013e611ab7565b606091505b5091509150611ac7858383611aef565b95945050505050565b34156110105760405163b398979f60e01b815260040160405180910390fd5b606082611b0457611aff82611b4b565b6110c4565b8151158015611b1b57506001600160a01b0384163b155b15611b4457604051639996b31560e01b81526001600160a01b0385166004820152602401610784565b5092915050565b805115611b5b5780518082602001fd5b60405163d6bda27560e01b815260040160405180910390fd5b5f60208284031215611b84575f80fd5b5035919050565b5f60208284031215611b9b575f80fd5b81356001600160e01b0319811681146110c4575f80fd5b5f8060408385031215611bc3575f80fd5b50508035926020909101359150565b6001600160a01b0381168114611500575f80fd5b5f8060408385031215611bf7575f80fd5b823591506020830135611c0981611bd2565b809150509250929050565b634e487b7160e01b5f52604160045260245ffd5b604051601f8201601f1916810167ffffffffffffffff81118282101715611c5157611c51611c14565b604052919050565b5f8060408385031215611c6a575f80fd5b8235611c7581611bd2565b915060208381013567ffffffffffffffff80821115611c92575f80fd5b818601915086601f830112611ca5575f80fd5b813581811115611cb757611cb7611c14565b611cc9601f8201601f19168501611c28565b91508082528784828501011115611cde575f80fd5b80848401858401375f848284010152508093505050509250929050565b5f805f805f60a08688031215611d0f575f80fd5b853594506020860135611d2181611bd2565b94979496505050506040830135926060810135926080909101359150565b5f60208284031215611d4f575f80fd5b81356110c481611bd2565b5f8060408385031215611d6b575f80fd5b8235611d7681611bd2565b946020939093013593505050565b5f5b83811015611d9e578181015183820152602001611d86565b50505f910152565b602081525f8251806020840152611dc4816040850160208701611d84565b601f01601f19169190910160400192915050565b8035611de381611bd2565b919050565b5f805f60608486031215611dfa575f80fd5b8335611e0581611bd2565b925060208481013567ffffffffffffffff80821115611e22575f80fd5b818701915087601f830112611e35575f80fd5b813581811115611e4757611e47611c14565b8060051b9150611e58848301611c28565b818152918301840191848101908a841115611e71575f80fd5b938501935b83851015611e9b5784359250611e8b83611bd2565b8282529385019390850190611e76565b809750505050505050611eb060408501611dd8565b90509250925092565b60208082526025908201527f4d75737420686176652073797374656d206f7220706f6f6c206d616e6167657260408201526420726f6c6560d81b606082015260800190565b602080825260139082015272131bd85b88191bd95cc81b9bdd08195e1a5cdd606a1b604082015260600190565b6020808252601290820152714c6f616e206973206e6f742061637469766560701b604082015260600190565b634e487b7160e01b5f52601160045260245ffd5b8181038181111561072e5761072e611f57565b808202811582820484141761072e5761072e611f57565b5f82611faf57634e487b7160e01b5f52601260045260245ffd5b500490565b5f60208284031215611fc4575f80fd5b815180151581146110c4575f80fd5b8082018082111561072e5761072e611f57565b634e487b7160e01b5f52603260045260245ffd5b5f6020828403121561200a575f80fd5b5051919050565b5f8251612022818460208701611d84565b919091019291505056fe5719df9ef2c4678b547f89e4f5ae410dbf400fc51cf3ded434c55f6adea2c43f360894a13ba1a3210667c828492db98dca3e2076cc3735a920a3ca505d382bbc02dd7bc7dec4dceedda775e58dd541e08a116c6c53815c0bd028192f7b6268006077685936c8169d09204a1d97db12e41713588c38e1d29a61867d3dcee98affa2646970667358221220b2eab62aa6ced77686da920c3ed0879268759cdafe17e9d0535fccd07f236dce64736f6c63430008160033",
        "linkReferences": {}
    },
    "methodIdentifiers": {
        "APPROVER_ROLE()": "4245962b",
        "DEFAULT_ADMIN_ROLE()": "a217fddf",
        "POOL_MANAGER_ROLE()": "56d73568",
        "SYSTEM_ROLE()": "75071d2a",
        "UPGRADE_INTERFACE_VERSION()": "ad3cb1cc",
        "activateLoan(bytes32)": "59694e14",
        "createLoan(bytes32,address,uint256,uint256,uint256)": "4fe9a7e3",
        "getNextRepayment(bytes32)": "9b9818ca",
        "getRoleAdmin(bytes32)": "248a9ca3",
        "grantRole(bytes32,address)": "2f2ff15d",
        "hasRole(bytes32,address)": "91d14854",
        "initialize(address,address[],address)": "dc5b68a6",
        "loanAmounts(address)": "8f78e2f0",
        "loanIdToActive(bytes32)": "751247f0",
        "loanIdToAmount(bytes32)": "183c87e7",
        "loanIdToBorrower(bytes32)": "889ed68a",
        "loanIdToInterestAmount(bytes32)": "da23f61d",
        "loanIdToInterestRate(bytes32)": "0a2d0854",
        "loanIdToInterestRepaymentAmount(bytes32)": "51be16a3",
        "loanIdToRepaymentAmount(bytes32)": "00396354",
        "loanIdToRepaymentRemainingMonths(bytes32)": "c3efa28a",
        "makeRepayment(bytes32)": "5c3d6a92",
        "owner()": "8da5cb5b",
        "proxiableUUID()": "52d1902d",
        "renounceOwnership()": "715018a6",
        "renounceRole(bytes32,address)": "36568abe",
        "revokeRole(bytes32,address)": "d547741f",
        "supportsInterface(bytes4)": "01ffc9a7",
        "token()": "fc0c546a",
        "transferFunds(address,uint256)": "990dc9db",
        "transferOwnership(address)": "f2fde38b",
        "updateLoanInterestRate(bytes32,uint256)": "0596313b",
        "updateLoanRepaymentRemainingMonths(bytes32,uint256)": "c56b6850",
        "upgradeToAndCall(address,bytes)": "4f1ef286"
    },
    "storageLayout": {
        "storage": [
            {
                "astId": 40202,
                "contract": "src/Loan/SimpleLoanPool.sol:SimpleLoanPool",
                "label": "token",
                "offset": 0,
                "slot": "0",
                "type": "t_contract(ERC20Upgradeable)38091"
            },
            {
                "astId": 40206,
                "contract": "src/Loan/SimpleLoanPool.sol:SimpleLoanPool",
                "label": "loanIdToActive",
                "offset": 0,
                "slot": "1",
                "type": "t_mapping(t_bytes32,t_bool)"
            },
            {
                "astId": 40210,
                "contract": "src/Loan/SimpleLoanPool.sol:SimpleLoanPool",
                "label": "loanIdToBorrower",
                "offset": 0,
                "slot": "2",
                "type": "t_mapping(t_bytes32,t_address)"
            },
            {
                "astId": 40214,
                "contract": "src/Loan/SimpleLoanPool.sol:SimpleLoanPool",
                "label": "loanIdToAmount",
                "offset": 0,
                "slot": "3",
                "type": "t_mapping(t_bytes32,t_uint256)"
            },
            {
                "astId": 40218,
                "contract": "src/Loan/SimpleLoanPool.sol:SimpleLoanPool",
                "label": "loanIdToInterestAmount",
                "offset": 0,
                "slot": "4",
                "type": "t_mapping(t_bytes32,t_uint256)"
            },
            {
                "astId": 40222,
                "contract": "src/Loan/SimpleLoanPool.sol:SimpleLoanPool",
                "label": "loanIdToInterestRate",
                "offset": 0,
                "slot": "5",
                "type": "t_mapping(t_bytes32,t_uint256)"
            },
            {
                "astId": 40226,
                "contract": "src/Loan/SimpleLoanPool.sol:SimpleLoanPool",
                "label": "loanIdToRepaymentAmount",
                "offset": 0,
                "slot": "6",
                "type": "t_mapping(t_bytes32,t_uint256)"
            },
            {
                "astId": 40230,
                "contract": "src/Loan/SimpleLoanPool.sol:SimpleLoanPool",
                "label": "loanIdToInterestRepaymentAmount",
                "offset": 0,
                "slot": "7",
                "type": "t_mapping(t_bytes32,t_uint256)"
            },
            {
                "astId": 40234,
                "contract": "src/Loan/SimpleLoanPool.sol:SimpleLoanPool",
                "label": "loanIdToRepaymentRemainingMonths",
                "offset": 0,
                "slot": "8",
                "type": "t_mapping(t_bytes32,t_uint256)"
            },
            {
                "astId": 40238,
                "contract": "src/Loan/SimpleLoanPool.sol:SimpleLoanPool",
                "label": "loanAmounts",
                "offset": 0,
                "slot": "9",
                "type": "t_mapping(t_address,t_uint256)"
            }
        ],
        "types": {
            "t_address": {
                "encoding": "inplace",
                "label": "address",
                "numberOfBytes": "20"
            },
            "t_bool": {
                "encoding": "inplace",
                "label": "bool",
                "numberOfBytes": "1"
            },
            "t_bytes32": {
                "encoding": "inplace",
                "label": "bytes32",
                "numberOfBytes": "32"
            },
            "t_contract(ERC20Upgradeable)38091": {
                "encoding": "inplace",
                "label": "contract ERC20Upgradeable",
                "numberOfBytes": "20"
            },
            "t_mapping(t_address,t_uint256)": {
                "encoding": "mapping",
                "key": "t_address",
                "label": "mapping(address => uint256)",
                "numberOfBytes": "32",
                "value": "t_uint256"
            },
            "t_mapping(t_bytes32,t_address)": {
                "encoding": "mapping",
                "key": "t_bytes32",
                "label": "mapping(bytes32 => address)",
                "numberOfBytes": "32",
                "value": "t_address"
            },
            "t_mapping(t_bytes32,t_bool)": {
                "encoding": "mapping",
                "key": "t_bytes32",
                "label": "mapping(bytes32 => bool)",
                "numberOfBytes": "32",
                "value": "t_bool"
            },
            "t_mapping(t_bytes32,t_uint256)": {
                "encoding": "mapping",
                "key": "t_bytes32",
                "label": "mapping(bytes32 => uint256)",
                "numberOfBytes": "32",
                "value": "t_uint256"
            },
            "t_uint256": {
                "encoding": "inplace",
                "label": "uint256",
                "numberOfBytes": "32"
            }
        }
    },
    "id": 45
}